{
  "_format": "hh-sol-artifact-1",
  "contractName": "Staking",
  "sourceName": "contracts/Staking.sol",
  "abi": [
    {
      "inputs": [
        {
          "internalType": "address",
          "name": "_stakingToken",
          "type": "address"
        }
      ],
      "stateMutability": "nonpayable",
      "type": "constructor"
    },
    {
      "anonymous": false,
      "inputs": [
        {
          "indexed": false,
          "internalType": "uint256",
          "name": "baseMultiplier",
          "type": "uint256"
        }
      ],
      "name": "BaseMultiplierUpdated",
      "type": "event"
    },
    {
      "anonymous": false,
      "inputs": [
        {
          "indexed": false,
          "internalType": "uint256",
          "name": "maxActiveStakeLimit",
          "type": "uint256"
        }
      ],
      "name": "MaxActiveStakeLimitUpdated",
      "type": "event"
    },
    {
      "anonymous": false,
      "inputs": [
        {
          "indexed": false,
          "internalType": "uint256",
          "name": "maxLockPeriod",
          "type": "uint256"
        }
      ],
      "name": "MaxLockPeriodUpdated",
      "type": "event"
    },
    {
      "anonymous": false,
      "inputs": [
        {
          "indexed": false,
          "internalType": "uint256",
          "name": "maxMultiplier",
          "type": "uint256"
        }
      ],
      "name": "MaxMultiplierUpdated",
      "type": "event"
    },
    {
      "anonymous": false,
      "inputs": [
        {
          "indexed": false,
          "internalType": "uint256",
          "name": "minLockPeriod",
          "type": "uint256"
        }
      ],
      "name": "MinLockPeriodUpdated",
      "type": "event"
    },
    {
      "anonymous": false,
      "inputs": [
        {
          "indexed": true,
          "internalType": "address",
          "name": "previousOwner",
          "type": "address"
        },
        {
          "indexed": true,
          "internalType": "address",
          "name": "newOwner",
          "type": "address"
        }
      ],
      "name": "OwnershipTransferred",
      "type": "event"
    },
    {
      "anonymous": false,
      "inputs": [
        {
          "indexed": true,
          "internalType": "address",
          "name": "staker",
          "type": "address"
        },
        {
          "indexed": false,
          "internalType": "uint256",
          "name": "amount",
          "type": "uint256"
        },
        {
          "indexed": false,
          "internalType": "uint256",
          "name": "lockPeriod",
          "type": "uint256"
        }
      ],
      "name": "Staked",
      "type": "event"
    },
    {
      "anonymous": false,
      "inputs": [
        {
          "indexed": true,
          "internalType": "address",
          "name": "staker",
          "type": "address"
        },
        {
          "indexed": false,
          "internalType": "uint256",
          "name": "amount",
          "type": "uint256"
        },
        {
          "indexed": false,
          "internalType": "uint256",
          "name": "reward",
          "type": "uint256"
        }
      ],
      "name": "Unstaked",
      "type": "event"
    },
    {
      "inputs": [],
      "name": "baseMultiplier",
      "outputs": [
        {
          "internalType": "uint256",
          "name": "",
          "type": "uint256"
        }
      ],
      "stateMutability": "view",
      "type": "function"
    },
    {
      "inputs": [
        {
          "internalType": "uint256",
          "name": "_lockPeriod",
          "type": "uint256"
        }
      ],
      "name": "calculateMultiplier",
      "outputs": [
        {
          "internalType": "uint256",
          "name": "",
          "type": "uint256"
        }
      ],
      "stateMutability": "view",
      "type": "function"
    },
    {
      "inputs": [
        {
          "internalType": "address",
          "name": "_staker",
          "type": "address"
        },
        {
          "internalType": "uint256",
          "name": "_index",
          "type": "uint256"
        }
      ],
      "name": "calculateReward",
      "outputs": [
        {
          "internalType": "uint256",
          "name": "",
          "type": "uint256"
        }
      ],
      "stateMutability": "view",
      "type": "function"
    },
    {
      "inputs": [],
      "name": "getAllStakes",
      "outputs": [
        {
          "components": [
            {
              "internalType": "address",
              "name": "staker",
              "type": "address"
            },
            {
              "internalType": "uint256",
              "name": "amount",
              "type": "uint256"
            },
            {
              "internalType": "uint256",
              "name": "lockPeriod",
              "type": "uint256"
            },
            {
              "internalType": "uint256",
              "name": "startTimestamp",
              "type": "uint256"
            },
            {
              "internalType": "bool",
              "name": "withdrawn",
              "type": "bool"
            }
          ],
          "internalType": "struct Staking.CombinedStake[]",
          "name": "",
          "type": "tuple[]"
        }
      ],
      "stateMutability": "view",
      "type": "function"
    },
    {
      "inputs": [
        {
          "internalType": "address",
          "name": "_staker",
          "type": "address"
        }
      ],
      "name": "getStakesByAddress",
      "outputs": [
        {
          "components": [
            {
              "internalType": "uint256",
              "name": "amount",
              "type": "uint256"
            },
            {
              "internalType": "uint256",
              "name": "lockPeriod",
              "type": "uint256"
            },
            {
              "internalType": "uint256",
              "name": "startTimestamp",
              "type": "uint256"
            },
            {
              "internalType": "bool",
              "name": "withdrawn",
              "type": "bool"
            }
          ],
          "internalType": "struct Staking.Stake[]",
          "name": "",
          "type": "tuple[]"
        }
      ],
      "stateMutability": "view",
      "type": "function"
    },
    {
      "inputs": [
        {
          "internalType": "address",
          "name": "_staker",
          "type": "address"
        }
      ],
      "name": "getTotalActiveUserStake",
      "outputs": [
        {
          "internalType": "uint256",
          "name": "",
          "type": "uint256"
        }
      ],
      "stateMutability": "view",
      "type": "function"
    },
    {
      "inputs": [],
      "name": "getTotalStaked",
      "outputs": [
        {
          "internalType": "uint256",
          "name": "",
          "type": "uint256"
        }
      ],
      "stateMutability": "view",
      "type": "function"
    },
    {
      "inputs": [],
      "name": "maxActiveStakeLimit",
      "outputs": [
        {
          "internalType": "uint256",
          "name": "",
          "type": "uint256"
        }
      ],
      "stateMutability": "view",
      "type": "function"
    },
    {
      "inputs": [],
      "name": "maxLockPeriod",
      "outputs": [
        {
          "internalType": "uint256",
          "name": "",
          "type": "uint256"
        }
      ],
      "stateMutability": "view",
      "type": "function"
    },
    {
      "inputs": [],
      "name": "maxMultiplier",
      "outputs": [
        {
          "internalType": "uint256",
          "name": "",
          "type": "uint256"
        }
      ],
      "stateMutability": "view",
      "type": "function"
    },
    {
      "inputs": [],
      "name": "minLockPeriod",
      "outputs": [
        {
          "internalType": "uint256",
          "name": "",
          "type": "uint256"
        }
      ],
      "stateMutability": "view",
      "type": "function"
    },
    {
      "inputs": [],
      "name": "owner",
      "outputs": [
        {
          "internalType": "address",
          "name": "",
          "type": "address"
        }
      ],
      "stateMutability": "view",
      "type": "function"
    },
    {
      "inputs": [],
      "name": "pause",
      "outputs": [],
      "stateMutability": "nonpayable",
      "type": "function"
    },
    {
      "inputs": [],
      "name": "paused",
      "outputs": [
        {
          "internalType": "bool",
          "name": "",
          "type": "bool"
        }
      ],
      "stateMutability": "view",
      "type": "function"
    },
    {
      "inputs": [
        {
          "internalType": "contract IERC20",
          "name": "_token",
          "type": "address"
        },
        {
          "internalType": "uint256",
          "name": "_amount",
          "type": "uint256"
        }
      ],
      "name": "rescueTokens",
      "outputs": [],
      "stateMutability": "nonpayable",
      "type": "function"
    },
    {
      "inputs": [
        {
          "internalType": "uint256",
          "name": "_baseMultiplier",
          "type": "uint256"
        }
      ],
      "name": "setBaseMultiplier",
      "outputs": [],
      "stateMutability": "nonpayable",
      "type": "function"
    },
    {
      "inputs": [
        {
          "internalType": "uint256",
          "name": "_maxActiveStakeLimit",
          "type": "uint256"
        }
      ],
      "name": "setMaxActiveStakeLimit",
      "outputs": [],
      "stateMutability": "nonpayable",
      "type": "function"
    },
    {
      "inputs": [
        {
          "internalType": "uint256",
          "name": "_maxLockPeriod",
          "type": "uint256"
        }
      ],
      "name": "setMaxLockPeriod",
      "outputs": [],
      "stateMutability": "nonpayable",
      "type": "function"
    },
    {
      "inputs": [
        {
          "internalType": "uint256",
          "name": "_maxMultiplier",
          "type": "uint256"
        }
      ],
      "name": "setMaxMultiplier",
      "outputs": [],
      "stateMutability": "nonpayable",
      "type": "function"
    },
    {
      "inputs": [
        {
          "internalType": "uint256",
          "name": "_minLockPeriod",
          "type": "uint256"
        }
      ],
      "name": "setMinLockPeriod",
      "outputs": [],
      "stateMutability": "nonpayable",
      "type": "function"
    },
    {
      "inputs": [
        {
          "internalType": "uint256",
          "name": "_amount",
          "type": "uint256"
        },
        {
          "internalType": "uint256",
          "name": "_lockPeriod",
          "type": "uint256"
        }
      ],
      "name": "stake",
      "outputs": [],
      "stateMutability": "nonpayable",
      "type": "function"
    },
    {
      "inputs": [],
      "name": "totalStaked",
      "outputs": [
        {
          "internalType": "uint256",
          "name": "",
          "type": "uint256"
        }
      ],
      "stateMutability": "view",
      "type": "function"
    },
    {
      "inputs": [
        {
          "internalType": "address",
          "name": "newOwner",
          "type": "address"
        }
      ],
      "name": "transferOwnership",
      "outputs": [],
      "stateMutability": "nonpayable",
      "type": "function"
    },
    {
      "inputs": [],
      "name": "uniqueStakersCount",
      "outputs": [
        {
          "internalType": "uint256",
          "name": "",
          "type": "uint256"
        }
      ],
      "stateMutability": "view",
      "type": "function"
    },
    {
      "inputs": [],
      "name": "unpause",
      "outputs": [],
      "stateMutability": "nonpayable",
      "type": "function"
    },
    {
      "inputs": [
        {
          "internalType": "uint256",
          "name": "_index",
          "type": "uint256"
        }
      ],
      "name": "unstake",
      "outputs": [],
      "stateMutability": "nonpayable",
      "type": "function"
    }
  ],
  "bytecode": "0x60a06040526127e060065561352060075562278d006008556301da9c006009556aa56fa5b99019a5c8000000600a553480156200003b57600080fd5b5060405162002e2138038062002e21833981810160405281019062000061919062000147565b8073ffffffffffffffffffffffffffffffffffffffff1660808173ffffffffffffffffffffffffffffffffffffffff168152505033600b60006101000a81548173ffffffffffffffffffffffffffffffffffffffff021916908373ffffffffffffffffffffffffffffffffffffffff1602179055505062000179565b600080fd5b600073ffffffffffffffffffffffffffffffffffffffff82169050919050565b60006200010f82620000e2565b9050919050565b620001218162000102565b81146200012d57600080fd5b50565b600081519050620001418162000116565b92915050565b60006020828403121562000160576200015f620000dd565b5b6000620001708482850162000130565b91505092915050565b608051612c856200019c6000396000818161094d01526117730152612c856000f3fe608060405234801561001057600080fd5b506004361061018e5760003560e01c806370d2e5cd116100de5780638da5cb5b11610097578063cc50108f11610071578063cc50108f14610439578063d60a095514610457578063ef84df3214610475578063f2fde38b146104915761018e565b80638da5cb5b146103bb5780639a9e8f49146103d9578063b88f53cd146104095761018e565b806370d2e5cd146103215780637320ca261461033d57806373ae54b5146103595780637b0472f014610377578063817b1cd2146103935780638456cb59146103b15761018e565b80633f4ba83a1161014b5780634e27fbaa116101255780634e27fbaa146102ad57806355889d01146102cb57806357376198146102e75780635c975abb146103035761018e565b80633f4ba83a14610255578063474b13aa1461025f5780634b1d29b41461028f5761018e565b806301526a43146101935780630187aea0146101af5780630917e776146101cd5780631852e8d9146101eb5780632e17de781461021b5780633c611e0514610237575b600080fd5b6101ad60048036038101906101a89190611ec9565b6104ad565b005b6101b76105c3565b6040516101c49190611f05565b60405180910390f35b6101d56105c9565b6040516101e29190611f05565b60405180910390f35b61020560048036038101906102009190611f7e565b6105d2565b6040516102129190611f05565b60405180910390f35b61023560048036038101906102309190611ec9565b6106bd565b005b61023f610a2e565b60405161024c919061210e565b60405180910390f35b61025d610dc7565b005b61027960048036038101906102749190611ec9565b610ec3565b6040516102869190611f05565b60405180910390f35b610297610f7a565b6040516102a49190611f05565b60405180910390f35b6102b5610f80565b6040516102c29190611f05565b60405180910390f35b6102e560048036038101906102e09190611ec9565b610f86565b005b61030160048036038101906102fc919061216e565b611057565b005b61030b6111ca565b60405161031891906121bd565b60405180910390f35b61033b60048036038101906103369190611ec9565b6111dd565b005b61035760048036038101906103529190611ec9565b6112f2565b005b6103616113c3565b60405161036e9190611f05565b60405180910390f35b610391600480360381019061038c91906121d8565b6113c9565b005b61039b611855565b6040516103a89190611f05565b60405180910390f35b6103b961185b565b005b6103c3611958565b6040516103d09190612227565b60405180910390f35b6103f360048036038101906103ee9190612242565b61197e565b6040516104009190611f05565b60405180910390f35b610423600480360381019061041e9190612242565b611ad4565b6040516104309190612373565b60405180910390f35b610441611bab565b60405161044e9190611f05565b60405180910390f35b61045f611bb1565b60405161046c9190611f05565b60405180910390f35b61048f600480360381019061048a9190611ec9565b611bb7565b005b6104ab60048036038101906104a69190612242565b611c88565b005b600b60009054906101000a900473ffffffffffffffffffffffffffffffffffffffff1673ffffffffffffffffffffffffffffffffffffffff163373ffffffffffffffffffffffffffffffffffffffff161461053d576040517f08c379a0000000000000000000000000000000000000000000000000000000008152600401610534906123f2565b60405180910390fd5b600654811015610582576040517f08c379a00000000000000000000000000000000000000000000000000000000081526004016105799061245e565b60405180910390fd5b806007819055507fc1ba18bc88cda71f03136908dce4e1a2319aeed38972c3c1a6a470f2d87a7432816040516105b89190611f05565b60405180910390a150565b60075481565b60008054905090565b600080600460008573ffffffffffffffffffffffffffffffffffffffff1673ffffffffffffffffffffffffffffffffffffffff16815260200190815260200160002083815481106106265761062561247e565b5b90600052602060002090600402016040518060800160405290816000820154815260200160018201548152602001600282015481526020016003820160009054906101000a900460ff16151515158152505090506000606461068b8360200151610ec3565b61069591906124dc565b905060648183600001516106a99190612510565b6106b39190612581565b9250505092915050565b600260009054906101000a900460ff161561070d576040517f08c379a0000000000000000000000000000000000000000000000000000000008152600401610704906125fe565b60405180910390fd5b600460003373ffffffffffffffffffffffffffffffffffffffff1673ffffffffffffffffffffffffffffffffffffffff168152602001908152602001600020805490508110610791576040517f08c379a00000000000000000000000000000000000000000000000000000000081526004016107889061266a565b60405180910390fd5b6000600460003373ffffffffffffffffffffffffffffffffffffffff1673ffffffffffffffffffffffffffffffffffffffff16815260200190815260200160002082815481106107e4576107e361247e565b5b906000526020600020906004020190508060030160009054906101000a900460ff1615610846576040517f08c379a000000000000000000000000000000000000000000000000000000000815260040161083d906126d6565b60405180910390fd5b8060010154816002015461085a91906126f6565b42101561089c576040517f08c379a000000000000000000000000000000000000000000000000000000000815260040161089390612776565b60405180910390fd5b60006108a833846105d2565b905060008183600001546108bc91906126f6565b905060018360030160006101000a81548160ff02191690831515021790555082600001546000808282546108f091906124dc565b925050819055503373ffffffffffffffffffffffffffffffffffffffff167f7fc4727e062e336010f2c282598ef5f14facb3de68cf8195c2f23e1454b2b74e846000015484604051610943929190612796565b60405180910390a27f000000000000000000000000000000000000000000000000000000000000000073ffffffffffffffffffffffffffffffffffffffff1663a9059cbb33836040518363ffffffff1660e01b81526004016109a69291906127bf565b6020604051808303816000875af11580156109c5573d6000803e3d6000fd5b505050506040513d601f19601f820116820180604052508101906109e99190612814565b610a28576040517f08c379a0000000000000000000000000000000000000000000000000000000008152600401610a1f9061288d565b60405180910390fd5b50505050565b6060600b60009054906101000a900473ffffffffffffffffffffffffffffffffffffffff1673ffffffffffffffffffffffffffffffffffffffff163373ffffffffffffffffffffffffffffffffffffffff1614610ac0576040517f08c379a0000000000000000000000000000000000000000000000000000000008152600401610ab7906123f2565b60405180910390fd5b600080600090505b600380549050811015610b76576004600060038381548110610aed57610aec61247e565b5b9060005260206000200160009054906101000a900473ffffffffffffffffffffffffffffffffffffffff1673ffffffffffffffffffffffffffffffffffffffff1673ffffffffffffffffffffffffffffffffffffffff1681526020019081526020016000208054905082610b6191906126f6565b91508080610b6e906128ad565b915050610ac8565b5060008167ffffffffffffffff811115610b9357610b926128f5565b5b604051908082528060200260200182016040528015610bcc57816020015b610bb9611e47565b815260200190600190039081610bb15790505b509050600080600090505b600380549050811015610dbd57600060038281548110610bfa57610bf961247e565b5b9060005260206000200160009054906101000a900473ffffffffffffffffffffffffffffffffffffffff16905060005b600460008373ffffffffffffffffffffffffffffffffffffffff1673ffffffffffffffffffffffffffffffffffffffff16815260200190815260200160002080549050811015610da8576000600460008473ffffffffffffffffffffffffffffffffffffffff1673ffffffffffffffffffffffffffffffffffffffff1681526020019081526020016000208281548110610cc757610cc661247e565b5b90600052602060002090600402016040518060800160405290816000820154815260200160018201548152602001600282015481526020016003820160009054906101000a900460ff16151515158152505090506040518060a001604052808473ffffffffffffffffffffffffffffffffffffffff16815260200182600001518152602001826020015181526020018260400151815260200182606001511515815250868680610d76906128ad565b975081518110610d8957610d8861247e565b5b6020026020010181905250508080610da0906128ad565b915050610c2a565b50508080610db5906128ad565b915050610bd7565b5081935050505090565b600b60009054906101000a900473ffffffffffffffffffffffffffffffffffffffff1673ffffffffffffffffffffffffffffffffffffffff163373ffffffffffffffffffffffffffffffffffffffff1614610e57576040517f08c379a0000000000000000000000000000000000000000000000000000000008152600401610e4e906123f2565b60405180910390fd5b600260009054906101000a900460ff16610ea6576040517f08c379a0000000000000000000000000000000000000000000000000000000008152600401610e9d90612970565b60405180910390fd5b6000600260006101000a81548160ff021916908315150217905550565b60006008548210158015610ed957506009548211155b610f18576040517f08c379a0000000000000000000000000000000000000000000000000000000008152600401610f0f906129dc565b60405180910390fd5b6064600854600954610f2a91906124dc565b60085484610f3891906124dc565b600654600754610f4891906124dc565b610f529190612510565b610f5c9190612581565b600654610f6991906126f6565b610f739190612581565b9050919050565b60095481565b600a5481565b600b60009054906101000a900473ffffffffffffffffffffffffffffffffffffffff1673ffffffffffffffffffffffffffffffffffffffff163373ffffffffffffffffffffffffffffffffffffffff1614611016576040517f08c379a000000000000000000000000000000000000000000000000000000000815260040161100d906123f2565b60405180910390fd5b806009819055507f7b7c77698f878318dddb782a570a024acc205613106c855f7d6bfb0c83f420ef8160405161104c9190611f05565b60405180910390a150565b600b60009054906101000a900473ffffffffffffffffffffffffffffffffffffffff1673ffffffffffffffffffffffffffffffffffffffff163373ffffffffffffffffffffffffffffffffffffffff16146110e7576040517f08c379a00000000000000000000000000000000000000000000000000000000081526004016110de906123f2565b60405180910390fd5b8173ffffffffffffffffffffffffffffffffffffffff1663a9059cbb600b60009054906101000a900473ffffffffffffffffffffffffffffffffffffffff16836040518363ffffffff1660e01b81526004016111449291906127bf565b6020604051808303816000875af1158015611163573d6000803e3d6000fd5b505050506040513d601f19601f820116820180604052508101906111879190612814565b6111c6576040517f08c379a00000000000000000000000000000000000000000000000000000000081526004016111bd9061288d565b60405180910390fd5b5050565b600260009054906101000a900460ff1681565b600b60009054906101000a900473ffffffffffffffffffffffffffffffffffffffff1673ffffffffffffffffffffffffffffffffffffffff163373ffffffffffffffffffffffffffffffffffffffff161461126d576040517f08c379a0000000000000000000000000000000000000000000000000000000008152600401611264906123f2565b60405180910390fd5b60648110156112b1576040517f08c379a00000000000000000000000000000000000000000000000000000000081526004016112a89061245e565b60405180910390fd5b806006819055507fd6e42b4bb59a3acd41f3456d494056d766fe9efb0d96c3d7619dafc63f19e0ac816040516112e79190611f05565b60405180910390a150565b600b60009054906101000a900473ffffffffffffffffffffffffffffffffffffffff1673ffffffffffffffffffffffffffffffffffffffff163373ffffffffffffffffffffffffffffffffffffffff1614611382576040517f08c379a0000000000000000000000000000000000000000000000000000000008152600401611379906123f2565b60405180910390fd5b806008819055507fe818ff6972bf8970ca14a893539e57452588b197b76e6afe29c40a31b3363c61816040516113b89190611f05565b60405180910390a150565b60085481565b600260009054906101000a900460ff1615611419576040517f08c379a0000000000000000000000000000000000000000000000000000000008152600401611410906125fe565b60405180910390fd5b6000821161145c576040517f08c379a000000000000000000000000000000000000000000000000000000000815260040161145390612a48565b60405180910390fd5b60008111801561146e57506008548110155b801561147c57506009548111155b6114bb576040517f08c379a00000000000000000000000000000000000000000000000000000000081526004016114b290612ab4565b60405180910390fd5b60006114c63361197e565b9050600a5483826114d791906126f6565b1115611518576040517f08c379a000000000000000000000000000000000000000000000000000000000815260040161150f90612b20565b60405180910390fd5b600560003373ffffffffffffffffffffffffffffffffffffffff1673ffffffffffffffffffffffffffffffffffffffff16815260200190815260200160002060009054906101000a900460ff1661163d576001600081548092919061157c906128ad565b91905055506001600560003373ffffffffffffffffffffffffffffffffffffffff1673ffffffffffffffffffffffffffffffffffffffff16815260200190815260200160002060006101000a81548160ff0219169083151502179055506003339080600181540180825580915050600190039060005260206000200160009091909190916101000a81548173ffffffffffffffffffffffffffffffffffffffff021916908373ffffffffffffffffffffffffffffffffffffffff1602179055505b600460003373ffffffffffffffffffffffffffffffffffffffff1673ffffffffffffffffffffffffffffffffffffffff168152602001908152602001600020604051806080016040528085815260200184815260200142815260200160001515815250908060018154018082558091505060019003906000526020600020906004020160009091909190915060008201518160000155602082015181600101556040820151816002015560608201518160030160006101000a81548160ff02191690831515021790555050508260008082825461171a91906126f6565b925050819055503373ffffffffffffffffffffffffffffffffffffffff167f1449c6dd7851abc30abf37f57715f492010519147cc2652fbc38202c18a6ee908484604051611769929190612796565b60405180910390a27f000000000000000000000000000000000000000000000000000000000000000073ffffffffffffffffffffffffffffffffffffffff166323b872dd3330866040518463ffffffff1660e01b81526004016117ce93929190612b40565b6020604051808303816000875af11580156117ed573d6000803e3d6000fd5b505050506040513d601f19601f820116820180604052508101906118119190612814565b611850576040517f08c379a00000000000000000000000000000000000000000000000000000000081526004016118479061288d565b60405180910390fd5b505050565b60005481565b600b60009054906101000a900473ffffffffffffffffffffffffffffffffffffffff1673ffffffffffffffffffffffffffffffffffffffff163373ffffffffffffffffffffffffffffffffffffffff16146118eb576040517f08c379a00000000000000000000000000000000000000000000000000000000081526004016118e2906123f2565b60405180910390fd5b600260009054906101000a900460ff161561193b576040517f08c379a000000000000000000000000000000000000000000000000000000000815260040161193290612bc3565b60405180910390fd5b6001600260006101000a81548160ff021916908315150217905550565b600b60009054906101000a900473ffffffffffffffffffffffffffffffffffffffff1681565b6000806000905060005b600460008573ffffffffffffffffffffffffffffffffffffffff1673ffffffffffffffffffffffffffffffffffffffff16815260200190815260200160002080549050811015611aca57600460008573ffffffffffffffffffffffffffffffffffffffff1673ffffffffffffffffffffffffffffffffffffffff1681526020019081526020016000208181548110611a2357611a2261247e565b5b906000526020600020906004020160030160009054906101000a900460ff16611ab757600460008573ffffffffffffffffffffffffffffffffffffffff1673ffffffffffffffffffffffffffffffffffffffff1681526020019081526020016000208181548110611a9757611a9661247e565b5b90600052602060002090600402016000015482611ab491906126f6565b91505b8080611ac2906128ad565b915050611988565b5080915050919050565b6060600460008373ffffffffffffffffffffffffffffffffffffffff1673ffffffffffffffffffffffffffffffffffffffff168152602001908152602001600020805480602002602001604051908101604052809291908181526020016000905b82821015611ba057838290600052602060002090600402016040518060800160405290816000820154815260200160018201548152602001600282015481526020016003820160009054906101000a900460ff16151515158152505081526020019060010190611b35565b505050509050919050565b60015481565b60065481565b600b60009054906101000a900473ffffffffffffffffffffffffffffffffffffffff1673ffffffffffffffffffffffffffffffffffffffff163373ffffffffffffffffffffffffffffffffffffffff1614611c47576040517f08c379a0000000000000000000000000000000000000000000000000000000008152600401611c3e906123f2565b60405180910390fd5b80600a819055507fb173003b3a82651cbe707888eaf6a95bda5d0d2a7ed28fe5134fdde2f3dd36cd81604051611c7d9190611f05565b60405180910390a150565b600b60009054906101000a900473ffffffffffffffffffffffffffffffffffffffff1673ffffffffffffffffffffffffffffffffffffffff163373ffffffffffffffffffffffffffffffffffffffff1614611d18576040517f08c379a0000000000000000000000000000000000000000000000000000000008152600401611d0f906123f2565b60405180910390fd5b600073ffffffffffffffffffffffffffffffffffffffff168173ffffffffffffffffffffffffffffffffffffffff1603611d87576040517f08c379a0000000000000000000000000000000000000000000000000000000008152600401611d7e90612c2f565b60405180910390fd5b8073ffffffffffffffffffffffffffffffffffffffff16600b60009054906101000a900473ffffffffffffffffffffffffffffffffffffffff1673ffffffffffffffffffffffffffffffffffffffff167f8be0079c531659141344cd1fd0a4f28419497f9722a3daafe3b4186f6b6457e060405160405180910390a380600b60006101000a81548173ffffffffffffffffffffffffffffffffffffffff021916908373ffffffffffffffffffffffffffffffffffffffff16021790555050565b6040518060a00160405280600073ffffffffffffffffffffffffffffffffffffffff1681526020016000815260200160008152602001600081526020016000151581525090565b600080fd5b6000819050919050565b611ea681611e93565b8114611eb157600080fd5b50565b600081359050611ec381611e9d565b92915050565b600060208284031215611edf57611ede611e8e565b5b6000611eed84828501611eb4565b91505092915050565b611eff81611e93565b82525050565b6000602082019050611f1a6000830184611ef6565b92915050565b600073ffffffffffffffffffffffffffffffffffffffff82169050919050565b6000611f4b82611f20565b9050919050565b611f5b81611f40565b8114611f6657600080fd5b50565b600081359050611f7881611f52565b92915050565b60008060408385031215611f9557611f94611e8e565b5b6000611fa385828601611f69565b9250506020611fb485828601611eb4565b9150509250929050565b600081519050919050565b600082825260208201905092915050565b6000819050602082019050919050565b611ff381611f40565b82525050565b61200281611e93565b82525050565b60008115159050919050565b61201d81612008565b82525050565b60a0820160008201516120396000850182611fea565b50602082015161204c6020850182611ff9565b50604082015161205f6040850182611ff9565b5060608201516120726060850182611ff9565b5060808201516120856080850182612014565b50505050565b60006120978383612023565b60a08301905092915050565b6000602082019050919050565b60006120bb82611fbe565b6120c58185611fc9565b93506120d083611fda565b8060005b838110156121015781516120e8888261208b565b97506120f3836120a3565b9250506001810190506120d4565b5085935050505092915050565b6000602082019050818103600083015261212881846120b0565b905092915050565b600061213b82611f40565b9050919050565b61214b81612130565b811461215657600080fd5b50565b60008135905061216881612142565b92915050565b6000806040838503121561218557612184611e8e565b5b600061219385828601612159565b92505060206121a485828601611eb4565b9150509250929050565b6121b781612008565b82525050565b60006020820190506121d260008301846121ae565b92915050565b600080604083850312156121ef576121ee611e8e565b5b60006121fd85828601611eb4565b925050602061220e85828601611eb4565b9150509250929050565b61222181611f40565b82525050565b600060208201905061223c6000830184612218565b92915050565b60006020828403121561225857612257611e8e565b5b600061226684828501611f69565b91505092915050565b600081519050919050565b600082825260208201905092915050565b6000819050602082019050919050565b6080820160008201516122b16000850182611ff9565b5060208201516122c46020850182611ff9565b5060408201516122d76040850182611ff9565b5060608201516122ea6060850182612014565b50505050565b60006122fc838361229b565b60808301905092915050565b6000602082019050919050565b60006123208261226f565b61232a818561227a565b93506123358361228b565b8060005b8381101561236657815161234d88826122f0565b975061235883612308565b925050600181019050612339565b5085935050505092915050565b6000602082019050818103600083015261238d8184612315565b905092915050565b600082825260208201905092915050565b7f4e6f74206f776e65720000000000000000000000000000000000000000000000600082015250565b60006123dc600983612395565b91506123e7826123a6565b602082019050919050565b6000602082019050818103600083015261240b816123cf565b9050919050565b7f496e76616c6964206d756c7469706c6965720000000000000000000000000000600082015250565b6000612448601283612395565b915061245382612412565b602082019050919050565b600060208201905081810360008301526124778161243b565b9050919050565b7f4e487b7100000000000000000000000000000000000000000000000000000000600052603260045260246000fd5b7f4e487b7100000000000000000000000000000000000000000000000000000000600052601160045260246000fd5b60006124e782611e93565b91506124f283611e93565b925082820390508181111561250a576125096124ad565b5b92915050565b600061251b82611e93565b915061252683611e93565b925082820261253481611e93565b9150828204841483151761254b5761254a6124ad565b5b5092915050565b7f4e487b7100000000000000000000000000000000000000000000000000000000600052601260045260246000fd5b600061258c82611e93565b915061259783611e93565b9250826125a7576125a6612552565b5b828204905092915050565b7f436f6e7472616374206973207061757365640000000000000000000000000000600082015250565b60006125e8601283612395565b91506125f3826125b2565b602082019050919050565b60006020820190508181036000830152612617816125db565b9050919050565b7f496e76616c6964207374616b6520696e64657800000000000000000000000000600082015250565b6000612654601383612395565b915061265f8261261e565b602082019050919050565b6000602082019050818103600083015261268381612647565b9050919050565b7f416c72656164792077697468647261776e000000000000000000000000000000600082015250565b60006126c0601183612395565b91506126cb8261268a565b602082019050919050565b600060208201905081810360008301526126ef816126b3565b9050919050565b600061270182611e93565b915061270c83611e93565b9250828201905080821115612724576127236124ad565b5b92915050565b7f4c6f636b20706572696f64206e6f7420656e6465640000000000000000000000600082015250565b6000612760601583612395565b915061276b8261272a565b602082019050919050565b6000602082019050818103600083015261278f81612753565b9050919050565b60006040820190506127ab6000830185611ef6565b6127b86020830184611ef6565b9392505050565b60006040820190506127d46000830185612218565b6127e16020830184611ef6565b9392505050565b6127f181612008565b81146127fc57600080fd5b50565b60008151905061280e816127e8565b92915050565b60006020828403121561282a57612829611e8e565b5b6000612838848285016127ff565b91505092915050565b7f5472616e73666572206661696c65640000000000000000000000000000000000600082015250565b6000612877600f83612395565b915061288282612841565b602082019050919050565b600060208201905081810360008301526128a68161286a565b9050919050565b60006128b882611e93565b91507fffffffffffffffffffffffffffffffffffffffffffffffffffffffffffffffff82036128ea576128e96124ad565b5b600182019050919050565b7f4e487b7100000000000000000000000000000000000000000000000000000000600052604160045260246000fd5b7f4e6f742070617573656400000000000000000000000000000000000000000000600082015250565b600061295a600a83612395565b915061296582612924565b602082019050919050565b600060208201905081810360008301526129898161294d565b9050919050565b7f496e76616c6964206c6f636b0000000000000000000000000000000000000000600082015250565b60006129c6600c83612395565b91506129d182612990565b602082019050919050565b600060208201905081810360008301526129f5816129b9565b9050919050565b7f416d6f756e74206d757374206265203e20300000000000000000000000000000600082015250565b6000612a32601283612395565b9150612a3d826129fc565b602082019050919050565b60006020820190508181036000830152612a6181612a25565b9050919050565b7f496e76616c6964206c6f636b20706572696f6400000000000000000000000000600082015250565b6000612a9e601383612395565b9150612aa982612a68565b602082019050919050565b60006020820190508181036000830152612acd81612a91565b9050919050565b7f45786365656473206d617820616374697665207374616b65206c696d69740000600082015250565b6000612b0a601e83612395565b9150612b1582612ad4565b602082019050919050565b60006020820190508181036000830152612b3981612afd565b9050919050565b6000606082019050612b556000830186612218565b612b626020830185612218565b612b6f6040830184611ef6565b949350505050565b7f416c726561647920706175736564000000000000000000000000000000000000600082015250565b6000612bad600e83612395565b9150612bb882612b77565b602082019050919050565b60006020820190508181036000830152612bdc81612ba0565b9050919050565b7f496e76616c696420616464726573730000000000000000000000000000000000600082015250565b6000612c19600f83612395565b9150612c2482612be3565b602082019050919050565b60006020820190508181036000830152612c4881612c0c565b905091905056fea26469706673582212209113267d3d97b8a91547f943d950b7790a230a825e032b2a5c44d95ca716975c64736f6c63430008140033",
  "linkReferences": {},
  "deployedLinkReferences": {}
}